:100000000C9472000C9493000C9493000C94930045
:100010000C9493000C9493000C9493000C94930014
:100020000C9493000C9493000C9493000C94930004
:100030000C9493000C9493000C9493000C949300F4
:100040000C9493000C9493000C9493000C949300E4
:100050000C9493000C94FE040C9493000C94930065
:100060000C9493000C943E050C9493000C94930014
:100070000C9493000C9493000C9493000C949300B4
:100080000C9493000C9493000C9493000C949300A4
:100090000C9493000C9493000C9493000C94930094
:1000A0000C9493000C9493000C9493000C94930084
:1000B0000C9493000C9493000C9493000C94930074
:1000C0000C9493000C9493000C9493000C94930064
:1000D0000C9493000C9493000C9493000C94930054
:1000E0000C94930011241FBECFEFD1E2DEBFCDBF31
:1000F00000E00CBF12E0A0E0B2E0E2ECFFE000E0C4
:100100000BBF02C007900D92A030B107D9F712E0E3
:10011000A0E0B2E001C01D92AD3AB107E1F70E9444
:1001200074050C94DF070C94000056985E9A0895AD
:10013000E1ECF0E010821092C000A2ECB0E08C91F3
:1001400086608C938FE58093C4001092C5008081F7
:100150008869808308950F931F93CF93909108022D
:10016000992319F4809307026FC0913059F490914C
:100170000602E9E9F2E0E90FF11D80839F5F9093A9
:10018000060262C0923009F041C0909104029923A6
:1001900031F480930A0281E08093040255C09130CB
:1001A00009F052C08093970210920402C091060297
:1001B0000C2F10E0000F111F000F111F055F1D4FC6
:1001C00090E024E630E0829FA001839F500D929F33
:1001D000500D112480910A02480F511DBA01882741
:1001E00077FD8095982F0E942B0720E030E048ECA7
:1001F00052E40E949506DC01CB01F80180839183D3
:10020000A283B383CF5FC09306021EC09330E1F494
:100210008D3F41F410920602809105028F5F80931A
:10022000050212C0909106022091050230E0F9010A
:10023000EE0FFF1FE20FF31FE90FF11DE55AFD4F0F
:1002400080839F5F90930602CF911F910F91089535
:1002500082E084BD80936E0080E987BD85E085BD26
:10026000089584B1806E84B985B1806E85B98DB1F1
:1002700088628DB98EB188628EB9E1E0F1E080814B
:1002800088638083E2E0F1E0808188638083EAE034
:10029000F1E0808188638083EBE0F1E08081886316
:1002A00080830895E1E8F0E010828CEF8093850070
:1002B00081E08093840093E0909389008FEF809396
:1002C000880090938B0080938A0090938D00809398
:1002D0008C0090938700809386008BEA8093800047
:1002E000109282008CE080830895E1E9F0E01082B2
:1002F0008CEF8093950081E08093940093E090933D
:1003000099008FEF8093980090939D0080939C00BC
:1003100090939700809396008BE8809390001092C2
:1003200092008CE080830895E1EAF0E010828CEF87
:100330008093A50081E08093A40093E09093A900AE
:100340008FEF8093A8009093AB008093AA009093C6
:10035000AD008093AC009093A7008093A6008BEA39
:100360008093A0001092A2008CE080830895E1E2C7
:10037000F1E010828CEF8093250181E080932401CD
:1003800093E0909329018FEF8093280190932B01A4
:1003900080932A0190932D0180932C019093270143
:1003A000809326018BEA80932001109222018CE039
:1003B0008083089510928900682F70E080E090E0BB
:1003C0000E9429072BE734E14EEE5FE30E94950679
:1003D00020E030E04CE052E40E942D060E94FD0631
:1003E00060938800089510928B00682F70E080E081
:1003F00090E00E9429072BE734E14EEE5FE30E9474
:10040000950620E030E04CE052E40E942D060E9468
:10041000FD0660938A00089510928D00682F70E0A9
:1004200080E090E00E9429072BE734E14EEE5FE385
:100430000E94950620E030E04CE052E40E942D0638
:100440000E94FD0660938C00089510929900682F19
:1004500070E080E090E00E9429072BE734E14EEE47
:100460005FE30E94950620E030E04CE052E40E94F9
:100470002D060E94FD0660939800089510929D003D
:10048000682F70E080E090E00E9429072BE734E1BC
:100490004EEE5FE30E94950620E030E04CE052E42F
:1004A0000E942D060E94FD0660939C000895109204
:1004B000A900682F70E080E090E00E9429072BE7F8
:1004C00034E14EEE5FE30E94950620E030E04CE020
:1004D00052E40E942D060E94FD066093A800089534
:1004E0001092AB00682F70E080E090E00E94290736
:1004F0002BE734E14EEE5FE30E94950620E030E00A
:100500004CE052E40E942D060E94FD066093AA0072
:1005100008951092AD00682F70E080E090E00E9496
:1005200029072BE734E14EEE5FE30E94950620E0B9
:1005300030E04CE052E40E942D060E94FD066093DC
:10054000AC00089510922901682F70E080E090E0DF
:100550000E9429072BE734E14EEE5FE30E949506E7
:1005600020E030E04CE052E40E942D060E94FD069F
:1005700060932801089510922B01682F70E080E0AD
:1005800090E00E9429072BE734E14EEE5FE30E94E2
:10059000950620E030E04CE052E40E942D060E94D7
:1005A000FD0660932A01089510922D01682F70E0D6
:1005B00080E090E00E9429072BE734E14EEE5FE3F4
:1005C0000E94950620E030E04CE052E40E942D06A7
:1005D0000E94FD0660932C01089583E080938900BA
:1005E0008FEF80938800089583E080938B008FEFD6
:1005F00080938A00089583E080938D008FEF80932D
:100600008C00089583E0809399008FEF8093980089
:10061000089583E080939D008FEF80939C00089560
:1006200083E08093A9008FEF8093A800089583E072
:100630008093AB008FEF8093AA00089583E08093AE
:10064000AD008FEF8093AC00089583E08093290183
:100650008FEF80932801089583E080932B018FEF23
:1006600080932A01089583E080932D018FEF80937A
:100670002C010895833481F487E80E94F3018FEF01
:100680009FE7ADE081509040A040E1F700C000003E
:100690008BE90E94F3010895843481F481E60E947D
:1006A0000C028FEF9FE7ADE081509040A040E1F752
:1006B00000C0000086E70E940C020895853481F492
:1006C00081E70E9425028FEF9FE7ADE081509040C7
:1006D000A040E1F700C0000085E80E9425020895CF
:1006E000863481F484E60E943E028FEF9FE7ADE0FE
:1006F00081509040A040E1F700C0000088E70E94D0
:100700003E020895873481F48CE80E9457028FEFEF
:100710009FE7ADE081509040A040E1F700C00000AD
:1007200080EA0E9457020895813481F487E50E948F
:1007300070028FEF9FE7ADE081509040A040E1F75D
:1007400000C000008BE60E9470020895823481F49C
:1007500088E70E9489028FEF9FE7ADE081509040CB
:10076000A040E1F700C000008CE80E9489020895D3
:100770008133C9F489E60E94DA018FEF9FE7ADE08B
:1007800081509040A040E1F700C000008DE70E943A
:10079000DA018FEF9FE7A6E181509040A040E1F79A
:1007A00000C000000895833681F48BE40E94A20209
:1007B0008FEF9FE7ADE081509040A040E1F700C08F
:1007C000000083E70E94A2020895843681F48FEA34
:1007D0000E94BB028FEF9FE7ADE081509040A040A8
:1007E000E1F700C000008BE90E94BB020895853646
:1007F00081F487E30E94D4028FEF9FE7ADE0815040
:100800009040A040E1F700C0000083E20E94D402C3
:1008100008958636B1F48BE40E94A2028FEA0E940A
:10082000BB028FEF9FE7ADE081509040A040E1F721
:1008300000C0000083E70E94A2028BE90E94BB0275
:1008400008958736B1F48FEA0E94BB0287E30E94C5
:10085000D4028FEF9FE7ADE081509040A040E1F7D8
:1008600000C000008BE90E94BB0283E20E94D40218
:1008700008958136B1F48BE40E94A20287E30E94BE
:10088000D4028FEF9FE7ADE081509040A040E1F7A8
:1008900000C0000083E70E94A20283E20E94D4020B
:1008A00008958236D9F48BE40E94A2028FEA0E9456
:1008B000BB0287E30E94D4028FEF9FE7ADE0815037
:1008C0009040A040E1F700C0000083E70E94A20230
:1008D0008BE90E94BB0283E20E94D40208950E9429
:1008E00031010E9452010E9475010E9494010E94F0
:1008F000B7018DE70E94DA018FEF9FEFA8E08150EA
:100900009040A040E1F700C000008BE90E94F30195
:100910008FEF9FEFA8E081509040A040E1F700C02A
:10092000000086E70E940C028FEF9FEFA8E0815045
:100930009040A040E1F700C0000085E80E94250239
:100940008FEF9FEFA8E081509040A040E1F700C0FA
:10095000000088E70E943E028FEF9FEFA8E08150E1
:100960009040A040E1F700C0000080EA0E945702DA
:100970008FEF9FEFA8E081509040A040E1F700C0CA
:1009800000008BE60E9470028FEF9FEFA8E081507D
:100990009040A040E1F700C000008CE80E9489026E
:1009A0008FEF9FEFA8E081509040A040E1F700C09A
:1009B000000083E70E94A2028FEF9FEFA8E0815022
:1009C0009040A040E1F700C000008BE90E94BB020C
:1009D0008FEF9FEFA8E081509040A040E1F700C06A
:1009E000000083E20E94D4028FEF9FEFA8E08150C5
:1009F0009040A040E1F700C0000008951F920F92C0
:100A00000FB60F920BB60F9211242F933F934F9373
:100A10005F936F937F938F939F93AF93BF93EF9366
:100A2000FF93609100027091010280910202909107
:100A300003022AE037ED43E25CE30E942D06462FD5
:100A4000572F682F792F4093000250930102609333
:100A5000020270930302FF91EF91BF91AF919F91BA
:100A60008F917F916F915F914F913F912F910F9057
:100A70000BBE0F900FBE0F901F9018951F920F92F4
:100A80000FB60F920BB60F9211242F933F934F93F3
:100A90005F936F937F938F939F93AF93BF93EF93E6
:100AA000FF938091C600809398028E3F41F480911D
:100AB00008028F5F809308021092060202C00E9413
:100AC000AB00FF91EF91BF91AF919F918F917F917B
:100AD0006F915F914F913F912F910F900BBE0F90AF
:100AE0000FBE0F901F9018950E949500F8940E94D9
:100AF00098000E946F047894E1ECF0E081E005C07A
:100B00004E99FECF10828093090290910902992399
:100B1000B9F3F89478940E942801C0E00F2EFBE00E
:100B20006F2EF2E07F2EF02D0F2EF9E94F2EF2E01E
:100B30005F2EF02D0F2EFBE52F2EF2E03F2EF02D35
:100B40000C2F10E0F801EE0FFF1FEE0FFF1FE60D58
:100B5000F71DC080D180E280F380809000029090E9
:100B60000102A0900202B0900302C701B6012AE080
:100B700037ED43E25CE30E942C06A50194010E943C
:100B800091068823D4F58090000290900102A090F5
:100B90000202B0900302C701B6012AE037ED43E23A
:100BA0005CE30E942D06A50194010E94DB07181644
:100BB00024F580910702C81700F5F201E00FF11F3C
:100BC0008081813061F4C801880F991F800F911FC7
:100BD000F101E80FF91F80810E943A030CC0C8019F
:100BE000880F991F800F911FF101E80FF91F808175
:100BF000805E0E943A03CF5FA3CF80910702C8179F
:100C000009F09ECF8FEF9FEFACE281509040A04063
:100C1000E1F700C000000E94ED020E94F4020E9471
:100C2000FB020E9402030E9409030E9410030E941B
:100C300017030E941E030E9425030E942C030E949A
:100C400033038FEF9FE7A6E181509040A040E1F78A
:100C500000C00000CF5F74CF5058BB27AA270ED02A
:100C600070C161D130F066D120F031F49F3F11F4B2
:100C70001EF456C10EF4E095E7FB4CC1E92F72D18A
:100C800080F3BA17620773078407950718F071F4A9
:100C90009EF58AC10EF4E0950B2EBA2FA02D0B0104
:100CA000B90190010C01CA01A0011124FF27591BB1
:100CB00099F0593F50F4503E68F11A16F040A22FB7
:100CC000232F342F4427585FF3CF46953795279528
:100CD000A795F0405395C9F77EF41F16BA0B620B27
:100CE000730B840BBAF09150A1F0FF0FBB1F661F6E
:100CF000771F881FC2F70EC0BA0F621F731F841FB1
:100D000048F4879577956795B795F7959E3F08F0D6
:100D1000B3CF9395880F08F09927EE0F9795879595
:100D20000895D4D008F481E008950CD00AC102D10E
:100D300040F0F9D030F021F45F3F19F0EBC05111D1
:100D400034C1EEC00FD198F39923C9F35523B1F301
:100D5000951B550BBB27AA2762177307840738F02A
:100D60009F5F5F4F220F331F441FAA1FA9F333D089
:100D70000E2E3AF0E0E830D091505040E695001C3D
:100D8000CAF729D0FE2F27D0660F771F881FBB1FF9
:100D9000261737074807AB07B0E809F0BB0B802DD3
:100DA000BF01FF2793585F4F2AF09E3F510568F01F
:100DB000B1C0FBC05F3FECF3983EDCF386957795BE
:100DC0006795B795F7959F5FC9F7880F911D969521
:100DD000879597F90895E1E0660F771F881FBB1F7D
:100DE000621773078407BA0720F0621B730B840B2A
:100DF000BA0BEE1F88F7E0950895BCD088F09F5796
:100E000090F0B92F9927B751A0F0D1F0660F771F56
:100E1000881F991F1AF0BA95C9F712C0B13081F036
:100E2000C3D0B1E00895C0C0672F782F8827B85F7E
:100E300039F0B93FCCF3869577956795B395D9F797
:100E40003EF490958095709561957F4F8F4F9F4FA1
:100E50000895E89409C097FB3EF4909580957095AD
:100E600061957F4F8F4F9F4F9923A9F0F92F96E9F6
:100E7000BB279395F695879577956795B795F1116B
:100E8000F8CFFAF4BB0F11F460FF1BC06F5F7F4F08
:100E90008F4F9F4F16C0882311F096E911C077231A
:100EA00021F09EE8872F762F05C0662371F096E823
:100EB000862F70E060E02AF09A95660F771F881FF2
:100EC000DAF7880F9695879597F90895990F000896
:100ED000550FAA0BE0E8FEEF16161706E807F9070C
:100EE000C0F012161306E407F50798F0621B730BA7
:100EF000840B950B39F40A2661F0232B242B252B28
:100F000021F408950A2609F4A140A6958FEF811DCA
:100F1000811D089597F99F6780E870E060E008956B
:100F20009FEF80EC089500240A9416161706180601
:100F30000906089500240A941216130614060506DD
:100F40000895092E0394000C11F4882352F0BB0F6E
:100F500040F4BF2B11F460FF04C06F5F7F4F8F4FD1
:100F60009F4F089557FD9058440F551F59F05F3F0C
:100F700071F04795880F97FB991F61F09F3F79F0BB
:100F800087950895121613061406551FF2CF46953D
:100F9000F1DF08C0161617061806991FF1CF8695BF
:100FA0007105610508940895E894BB2766277727A3
:100FB000CB0197F908958ADF08F48FEF0895F8942C
:020FC000FFCF61
:00000001FF
