:100000000C9472000C9493000C9493000C94930045
:100010000C9493000C94DF050C9493000C949300C3
:100020000C9493000C9493000C9493000C94930004
:100030000C9493000C9407060C9493000C9493007A
:100040000C9493000C9493000C9493000C949300E4
:100050000C9493000C9493000C9493000C949300D4
:100060000C9493000C9493000C9493000C949300C4
:100070000C9493000C9493000C9493000C949300B4
:100080000C9493000C9493000C9493000C949300A4
:100090000C9493000C9493000C9493000C94930094
:1000A0000C9493000C9493000C9493000C94930084
:1000B0000C9493000C9493000C9493000C94930074
:1000C0000C9493000C9493000C9493000C94930064
:1000D0000C9493000C9493000C9493000C94930054
:1000E0000C94930011241FBECFEFD1E2DEBFCDBF31
:1000F00000E00CBF12E0A0E0B2E0E6E4FFE100E0C7
:100100000BBF02C007900D92AC33B107D9F716E0D0
:10011000ACE3B2E001C01D92A03AB107E1F70E9442
:1001200054060C94A10F0C940000E9EBF0E0208140
:100130002E7F208320812D7F20839C0140E050E092
:1001400066E67EE080E090E00E94860F203140F07D
:1001500030E02051304012F42F5F3F4F3595279506
:100160002093B800089584E690E00E949500ECEB9F
:10017000F0E08081846080830895519A84EA8093BE
:10018000BC00089584E98093BC0008958091BC0070
:1001900088234CF08AE590E0ECEBF0E0208122230C
:1001A00014F00197D9F70895882339F0ECEBF0E0CB
:1001B00080818F70806C80830895ECEBF0E080810B
:1001C0008F708068808308958091BB00089580912E
:1001D000B9000895009759F4089500000000000048
:1001E0000000000000002150C1F7019711F02AE53E
:1001F000F4CF0895CF93C82F81E090E00E94EA00E9
:10020000519AC093BB0084E88093BC00CF910895BD
:100210001092B20082E08093B000809370009091C1
:1002200041029093B3008093B1000895109285002D
:1002300010928400109289001092880081E88093C7
:10024000800089E08093810008954091980450E0F7
:10025000E0915702F09158024E2B5F2B7091990458
:1002600060E0642B752B80919A04582F552740E04D
:10027000462B572B20919B04922F992780E0842BAB
:10028000952B90935802809357029C0140E050E0D8
:1002900060E070E28CE190E00E94860F20934102C2
:1002A0002091A20430E04091550250915602242B37
:1002B000352B9091A30480E0822B932B90935602D0
:1002C00080935502969587959695879596958795EF
:1002D000809352022091900430E06091530270911B
:1002E0005402262B372B5091910440E0422B532B84
:1002F00080919204382F332720E0242B352B409116
:100300009304942F992780E0822B932B4C96909303
:10031000540280935302089510926A0080E18DBBCD
:100320000895E1ECF0E010821092C000A2ECB0E081
:100330008C9186608C938FE58093C4001092C500E9
:100340008081886180830895E0ECF0E0908195FFE2
:10035000FDCF8093C6000895CF93DF93EC01888191
:10036000882331F021960E94A40189918823D9F72E
:10037000DF91CF910895CF93C82F0E94BD000E94B6
:10038000C60080913902880F0E94FA000E94C600C0
:100390008C2F0E94FA000E94C6000E94BD0080912E
:1003A0003902880F81600E94FA000E94C6008FEF18
:1003B0000E94D4000E94C6000E94E400C82F0E9440
:1003C000C6000E94C200ECEBF0E080818B7F80834E
:1003D0008081846080838C2FCF910895CF93DF93A9
:1003E000D82FC62F0E94BD000E94C60080913902FE
:1003F000880F0E94FA000E94C6008D2F0E94FA000A
:100400000E94C6008C2F0E94FA000E94C6000E9423
:10041000C200DF91CF9108958770843091F08530CC
:1004200038F48230D1F0833070F48130A1F407C009
:10043000863059F0863058F0873069F40AC083E47A
:10044000089585E4089586E4089587E4089581E495
:10045000089582E4089580E3089584E4089527E0F0
:1004600030E060E090E0AC01022E02C05595479567
:100470000A94E2F740FF02C0722F6F5F21503040B4
:100480004FEF2F3F340779F7613031F4E1E3F2E0C9
:10049000E70FF11D8081089580E308958BE261E00C
:1004A0000E94EE018CE261E00E94EE018DE260E0CC
:1004B0000E94EE018EE260E00E94EE018FE261E0B8
:1004C0000E94EE0180E361E00E94EE0181E36FEFA4
:1004D0000E94EE0182E362E00E94EE0181E46FE09F
:1004E0000E94EE0182E46AE00E94EE0183E46FE084
:1004F0000E94EE0184E46AE00E94EE0185E46FE070
:100500000E94EE0186E46AE00E94EE0187E46FE05B
:100510000E94EE0188E46AE00E94EE0189E46FE047
:100520000E94EE018AE46AE00E94EE018BE46FE033
:100530000E94EE018CE46AE00E94EE018DE46FE01F
:100540000E94EE018EE46AE00E94EE018FE46FE00B
:100550000E94EE0180E56AE00E94EE0181E56FE015
:100560000E94EE0182E56AE00E94EE0183E56FE001
:100570000E94EE0184E56AE00E94EE0185E56FE0ED
:100580000E94EE0186E56AE00E94EE018DE564E0DE
:100590000E94EE018EE56BE80E94EE01089580E076
:1005A0000E94BB018093400281E00E94BB018093C6
:1005B0003F02909140029923A1F010927000109296
:1005C0008100892F0E942F02803341F080933002F6
:1005D00091E090933D0290E00E94DD031092400272
:1005E0000895882309F18FEF9FEFA8E08150904094
:1005F000A040E1F700C0000081E00E94BB018093B1
:100600003F02882389F010927000109281000E94AE
:100610000C02803339F08093300210923D0290E05A
:100620000E94DD0310923F02089556985E9A089545
:100630008DB18DB9749A8AB18AB98BB183608BB947
:1006400008950E94180378940E94B3000E944E02FD
:100650008FEF9FE3A2E081509040A040E1F700C0FF
:100660000000259A2D980E94A10C882371F08FEF2D
:100670009FE3A2E081509040A040E1F700C000005D
:100680000E94F506882311F40BC0FFCF8FEF9FE384
:10069000A2E081509040A040E1F700C00000089522
:1006A000FFCF1F93CF93DF93C82F0E94A401C09365
:1006B0004202E0913C02F0E0EE0FFF1FE45EFD4FCE
:1006C0008181893539F483E2809343020E94A40139
:1006D00012E001C011E0E0913C02F0E0EE0FFF1FDC
:1006E000E45EFD4F8081C2E4D2E0FE01E10FF11D26
:1006F00080830E94A40180E092E00E94AC01812FDF
:100700008F5FC80FD11D8FE58883212F2E5F8091C9
:100710003D028130B9F482E492E0FC01E20FF11D68
:1007200020E52083212F2D5FFC01E20FF11D29E63A
:100730002083212F2C5F820F911D21E6FC01208355
:100740001B5F16C082E492E0FC01E20FF11D24E57C
:100750002083212F2D5FFC01E20FF11D22E7208372
:10076000212F2C5F820F911D25E7FC0120831B5F49
:1007700082E492E0FC01E10FF11D2EE22083212FA3
:100780002F5FFC01E20FF11D27E72083212F2E5F51
:10079000FC01E20FF11D21E62083212F2D5FFC01DA
:1007A000E20FF11D26E720831C5F810F911DFC01E4
:1007B0001082DF91CF911F9108952F923F924F9217
:1007C0005F926F927F928F929F92AF92BF92CF92E1
:1007D000DF92EF92FF920F931F93CF93DF93CDB7EA
:1007E000DEB762970FB6F894DEBF0FBECDBFC82E3E
:1007F00021E3821789F4F89482E092E00E94AC0130
:1008000080E092E00E94AC0181E064E072E00E942E
:100810000B0A882331F5FFCF80913D02813049F4E6
:100820008CE092E00E94AC0180E092E00E94AC017A
:1008300008C082E192E00E94AC0180E092E00E9458
:10084000AC018C2D0E94510380913C028F5F8093FC
:100850003C0281E062E472E00E940B0A882309F402
:10086000FFCF8091610290916202A0916302B091EA
:1008700064028093650490936604A0936704B09328
:10088000680481E58CBD1D821E821F821886882423
:100890009924540119821A821B821C820F2EF1E8BE
:1008A0004F2EF6E05F2EF02D0F2EF5E66F2EF2E0C4
:1008B0007F2EF02D0F2EF1E82F2EF4E03F2EF02D9D
:1008C0001D861E861F86188A680180916504909196
:1008D0006604A0916704B0916804809361029093CC
:1008E0006202A0936302B093640210925D021092C0
:1008F0005E0210925F021092600219861A861B86B1
:100900001C86DA8AC98A89819A81AB81BC81009769
:10091000A105B10591F40E944B0A0E94250120E037
:1009200032E040E050E029873A874B875C87CC244F
:10093000DD2476016894D1F804C0C980DA80EB80A8
:10094000FC800E944B0A8D819E81AF81B8858050CA
:100950009F4FAF4FBF4F40914E0250914F02609159
:10096000500270915102481759076A077B07E0F05F
:100970008D839E83AF83B887209190063091910636
:10098000409192065091930629833A834B835C836E
:10099000BA01A9014050524060407040D1018A0123
:1009A0009B01B701A6010EC0E1E0CE16E6E0DE062F
:1009B000E0E0EE06E0E0FE0670F68D839E83AF83F6
:1009C000B887DACF8C918A8B198AFD0131978081A3
:1009D00090E0E989FA898E2B9F2B992354F0880F98
:1009E000892F881F990B9195F301E80DF91D8083DC
:1009F0000CC0909581959F4F880F892F881F990B68
:100A00009195F301E80DF91D80834E5F5F4F6F4FA5
:100A10007F4F0894811C911CA11CB11C40175107E9
:100A20006207730758F41296A415B50559F6D50157
:100A3000C40149835A836B837C8302C0D501C401FE
:100A4000803052E0950750E0A50750E0B50780F1EF
:100A500089819A81AB81BC818130E6E09E07E0E02C
:100A6000AE07E0E0BE0700F510925A02109259025C
:100A70002D853E854F85588920934E0230934F0235
:100A8000409350025093510278940E9408010E94B2
:100A900016018D859E85AF85B8898D839E83AF8332
:100AA000B8874C015D0104C08D849E84AF84B888F2
:100AB0008091900690919106A0919206B091930634
:100AC00029813A814B815C81281739074A075B07E6
:100AD00038F589859A85AB85BC8580509E4FAF4F90
:100AE000BF4F89879A87AB87BC878091770490E056
:100AF00020915B0230915C02829FA001839F500D88
:100B0000929F500D112460E070E089859A85AB8535
:100B1000BC8584179507A607B70708F4F4CE22C052
:100B2000109270001092810083E58CBD80E3809369
:100B3000300262960FB6F894DEBF0FBECDBFDF91D4
:100B4000CF911F910F91FF90EF90DF90CF90BF90CA
:100B5000AF909F908F907F906F905F904F903F905D
:100B60002F900895C988DA884091610250916202FD
:100B7000609163027091640280E000E010E09801EF
:100B80000E94C407DC01CB01809365049093660446
:100B9000A0936704B09368048091900690919106A9
:100BA000A0919206B091930629813A814B815C8194
:100BB000281739074A075B0708F487CEB1CF1F9281
:100BC0000F920FB60F920BB60F9211242F933F93F3
:100BD0004F935F936F937F938F939F93AF93BF9345
:100BE000EF93FF930E94CF02FF91EF91BF91AF91DE
:100BF0009F918F917F916F915F914F913F912F9135
:100C00000F900BBE0F900FBE0F901F9018951F9264
:100C10000F920FB60F920BB60F9211242F938F9352
:100C20009F93AF93BF93EF93FF93E0915902F0919D
:100C30005A02EB59FD4F80818093880080915902C0
:100C400090915A02019690935A0280935902809192
:100C50004E0290914F02A0915002B0915102019624
:100C6000A11DB11D80934E0290934F02A09350029C
:100C7000B09351028091590290915A0222E0803043
:100C8000920720F010925A0210925902FF91EF91B0
:100C9000BF91AF919F918F912F910F900BBE0F90AD
:100CA0000FBE0F901F9018950E9415030E942103FC
:100CB0000E949101259ACAE1D2E000E012E00BC047
:100CC0004E99FECF81E080933E02CE010E94AC019E
:100CD000C8010E94AC0180913E02882389F30E94E2
:100CE0008C01FFCFCF92DF92EF92FF920F931F9371
:100CF000CF93DF93C82FD62F69017A0180918006A8
:100D00009091810601960E94300D8091800490910F
:100D10008104A0918204B0918304823522E5920778
:100D200021E6A20721E4B20701F1809164069091C7
:100D30006506A0916606B0916706823722E79207A2
:100D400021E4A20721E6B20781F080917C06909110
:100D50007D06A0917E06B0917F06803020E092074C
:100D600025E5A2072AEAB20781F5CC23A1F4D13008
:100D700049F4009168061091690620916A06309145
:100D80006B0626C000916C0610916D0620916E06D0
:100D900030916F061DC0D13061F4C0926806D092C8
:100DA0006906E0926A06F0926B060FEF1FEF98015A
:100DB0000FC0C0926C06D0926D06E0926E06F09263
:100DC0006F060FEF1FEF980103C000E010E09801DD
:100DD000602F712F822F932FDF91CF911F910F9151
:100DE000FF90EF90DF90CF900895CF92DF92EF9237
:100DF000FF920F931F93CF9310928006109281065B
:100E0000109282061092830680E090E00E94300DDE
:100E100080917E0690917F060AEA8535900709F059
:100E2000A8C08091460690914706AC0160E070E052
:100E300040938006509381066093820670938306E8
:100E40000E94300D809180048B3E19F0893E09F09C
:100E500092C080918B0490918C0490935C0280935B
:100E60005B02C0918D04C0937704C0908E04D09033
:100E70008F04D0926A04C09269048091AC0490916E
:100E8000AD04A091AE04B091AF0480938506909319
:100E90008606A0938706B0938806EE24FF2460910F
:100EA000900470E080E090E02091A4043091A504CB
:100EB0004091A6045091A7040E941E0FDC01CB01B3
:100EC00040919C0450919D0460919E0470919F04F8
:100ED0004C0D5D1D6E1D7F1D480F591F6A1F7B1F26
:100EE0004093890650938A0660938B0670938C0614
:100EF0004091A0045091A1046091A2047091A304B8
:100F00004C195D096E097F098A019B01081B190BA9
:100F10002A0B3B0BC901B8010E942D0E6B017C010D
:100F20006C2F70E080E090E00E942F0E9B01AC01DE
:100F300060E070E080E89FE30E94990D9B01AC01A6
:100F4000C701B6010E94BB0E0E94010EDC01CB015D
:100F500080937C0490937D04A0937E04B0937F04DF
:100F600080E061E020E030E0A9010E94720681E0AB
:100F700003C080E001C080E0CF911F910F91FF90EE
:100F8000EF90DF90CF9008953F924F925F926F92D3
:100F90007F928F929F92AF92BF92CF92DF92EF9209
:100FA000FF920F931F93CF93DF9300D00F92CDB793
:100FB000DEB7382E09831A832B833C83CB01BA0119
:100FC000660F771F881F991F660F771F881F991F4D
:100FD00080905B0290905C02AA24BB24C0906904BC
:100FE000D0906A04EE24FF240091800610918106BF
:100FF000209182063091830626013701400E511E52
:10100000621E731EA50194010E94640F69017A019A
:101010008B019C01C40CD51CE61CF71C0F2EFAE0BA
:101020008F2EF02DC6010E94300D882311F48A9472
:10103000C9F7F801E058FB4F332031F400811181EA
:10104000228133813F700CC089819A81AB81BC8140
:1010500080839183A283B38301E010E020E030E03D
:10106000602F712F822F932F0F900F900F900F9062
:10107000DF91CF911F910F91FF90EF90DF90CF9074
:10108000BF90AF909F908F907F906F905F904F90A8
:101090003F900895CF93DF93CDB7DEB72B970FB670
:1010A000F894DEBF0FBECDBF9C01FC0180818E3263
:1010B00009F466C0319641E081918E3221F04F5F94
:1010C0004C30D1F703C0442309F45BC0D901FE01C1
:1010D0003196842F815062E070E06C0F7D1F680FA5
:1010E000711DCB015D915193E817F907D9F748308D
:1010F00008F449C00BC090E2E1E0F0E0EC0FFD1F06
:10110000E80FF11D90838F5F8830B0F3842F8F5FDD
:10111000F901E80FF11D80818823B9F18987842FB7
:101120008E5FF901E80FF11D8081882371F18A87B4
:101130004D5FF901E40FF11D8081882331F18B8728
:10114000FE013196CE010C96DF014C91542F515681
:101150005A3110F440524C931196A817B907A9F7C9
:10116000D90121912D938E179F07D9F781E02B96F6
:101170000FB6F894DEBF0FBECDBFDF91CF910895BB
:1011800040E0842FB8CF842FB6CFFFCF0F931F93AB
:1011900062507040804090402091770430E040E001
:1011A00050E00E941E0F8B019C0180918906909156
:1011B0008A06A0918B06B0918C06080F191F2A1F72
:1011C0003B1F602F712F822F932F1F910F91089536
:1011D0002F923F924F925F926F927F928F929F9247
:1011E000AF92BF92CF92DF92EF92FF920F931F9335
:1011F000CF93DF93CDB7DEB729970FB6F894DEBF54
:101200000FBECDBFF82E6B018091850690918606AA
:10121000A0918706B09188068C839D83AE83BF839F
:1012200080E894E0E82E9B83DC011B96BA83A983B7
:101230003B010894611C711C6C817D818E819F81B2
:101240000E94C6081B012C0180917704882309F4B1
:10125000ABC0882499245401C401820D931D0E94BF
:10126000300D00915B0210915C020115110509F42B
:101270008BC0AE2DBB8189819A8120E030E09987B7
:101280008887C8010F2D7C011A2FBD018C918823FE
:1012900019F4013021F4A2C0853E09F467C0E88545
:1012A000F98590819F3009F461C0013009F05EC07A
:1012B000F6019081891709F44EC058C0CA01AD01EA
:1012C000DC0191918D91981709F04FC0888599851F
:1012D000E817F907B1F7820C931CA41CB51C809287
:1012E000730490927404A0927504B0927604C901BC
:1012F000A0E0B0E080936B0490936C04A0936D0425
:10130000B0936E04DB0154968D919C915597A0E0AB
:10131000B0E0DC0199278827FB01228D338D8901FC
:1013200020E030E0802B912BA22BB32B809378040C
:1013300090937904A0937A04B0937B04848D958D67
:10134000A68DB78D8093900690939106A0939206F8
:10135000B093930645C0FB013196A301888599851A
:101360008E179F0709F0AACF01C0DA01205E3F4F18
:101370009096888599858096998788872E153F0550
:1013800008F483CFF02EE12E0894811C911CA11C3F
:10139000B11C8091770490E0A0E0B0E08816990637
:1013A000AA06BB0608F458CF80E04C815D816E81AF
:1013B0007F8100E010E098010E94C4076C837D8368
:1013C0008E839F83673FAFEF7A07AFEF8A07AFE067
:1013D0009A0708F431CF60E070E002C060E070E08E
:1013E000862F972F29960FB6F894DEBF0FBECDBF7C
:1013F000DF91CF911F910F91FF90EF90DF90CF90F1
:10140000BF90AF909F908F907F906F905F904F9024
:101410003F902F9008951F93CF93DF93182FEB01E8
:10142000CB010E944A0881E0BE010E94E808FC014D
:10143000123061F184899589A0E0B0E0DC01992740
:101440008827228D338DA90160E070E0842B952BD5
:10145000A62BB72B8093610290936202A093630244
:10146000B0936402848D958DA68DB78D8093900680
:1014700090939106A0939206B093930610925D020A
:1014800010925E0210925F021092600281E0DF9182
:10149000CF911F91089560916102709162028091D5
:1014A0006302909164020E94C608DC01CB01809324
:1014B0006F0490937004A0937104B0937204209110
:1014C000770430E02150304040915D0250915E023F
:1014D00060915F0270916002032E39E07695679506
:1014E000579547953A95D1F7302D242335233093DE
:1014F0008F0620938E06820F931F0E94300D8091DD
:101500005B0290915C02A0E0B0E040915D025091DE
:101510005E0260915F0270916002840F951FA61FAA
:10152000B71F80935D0290935E02A0935F02B09319
:10153000600281E0089587B1876F87B988B18870AC
:1015400088B9089586E69EE00197F1F7000040987B
:10155000419880E388B9429AEFEFF7E43197F1F7C9
:1015600000C000004298E6E6FEE03197F1F7000087
:101570004098419888B9429AEFEFF7E43197F1F734
:1015800000C000004298E6E6FEE03197F1F7000067
:101590004098419888B9429A8FEF97E40197F1F704
:1015A00000C000004298E6E6FEE03197F1F7000047
:1015B0004098419880E288B9429A8FEF97E401976A
:1015C000F1F700C000004298089598B19F7098B953
:1015D00098B1282F207F922B98B940984198429A31
:1015E000EFEFF7E43197F1F700C00000429898B1AF
:1015F0009F7098B998B18295807F892B88B940985F
:101600004198429A8FEF97E40197F1F700C00000EC
:10161000429808950E94A20A86E69EE00197F1F79B
:10162000000088E20E94E50A81E00E94E50A86E067
:101630000E94E50A8EE00E94E50A80E80E94E50A21
:10164000089580E80E94E50A0895823079F0833099
:1016500018F48130C9F405C0833069F08430A1F4F6
:101660000FC0862F81580E94E50A0895862F815465
:101670000E94E50A0895862F8D560E94E50A089576
:10168000862F8D520E94E50A089581E00E94E50AA6
:101690000895CF93C42F0E94250B88B18F7088B90D
:1016A00088B19C2F907F892B88B9409A4198429AA3
:1016B0008FEF97E40197F1F700C00000429888B1DE
:1016C0008F7088B988B1C295C07FC82BC8B9409ABD
:1016D0004198429A8FEF97E40197F1F700C000001C
:1016E0004298CF9108950F931F93CF93DF93D82FF4
:1016F000C62FFA014081442369F08F010F5F1F4F0D
:101700008D2F6C2F0E94490BCF5FF80141918F0103
:101710004423B1F7DF91CF911F910F910895EF927C
:10172000FF920F931F93CF93DF93D82FC62F7A0189
:1017300089010E94250BFF205CF4F094E194F108EC
:10174000F3948D2F6C2F4AE352E00E94730BCF5F0E
:10175000DD2311F0CC2319F40E94210B04C08D2F3E
:101760006C2F0E94250B0530110591F4C70160E133
:1017700077E20E94510FAB01405D5F4F5093950699
:10178000409394068D2F6C2F0E94490BCF5F03C0AE
:1017900004301105E1F4C70168EE73E00E94510FB7
:1017A000CB0170939706609396066AE070E00E9402
:1017B0003D0FAC01405D5F4F50939F0640939E06E6
:1017C0008D2F6C2F0E94490BCF5F81E001C080E01C
:1017D0000330110511F08130D9F4C70164E670E0DF
:1017E0000E94510FCB0170939706609396066AE0B2
:1017F00070E00E943D0FAC01405D5F4F50939B062F
:1018000040939A068D2F6C2F0E94490BCF5F81E089
:101810000230110511F08130D9F42AE030E0C7011F
:10182000B9010E94510FCB01709397066093960601
:10183000B9010E943D0FAC01405D5F4F5093990686
:10184000409398068D2F6C2F0E94490BCF5F81E04B
:101850000130110511F0813089F4C7016AE070E0B0
:101860000E94510FAC01405D5F4F50939D06409325
:101870009C068D2F6C2F0E94490BCF5F06301105FF
:101880002CF08D2F6C2F45E40E94490BDF91CF91F6
:101890001F910F91FF90EF900895FF920F931F9368
:1018A000CF93DF93082FC42F152FD62FF72E2A9A08
:1018B0008FEF0E948D0D8FEF9FE80197F1F700C029
:1018C0000000802F80640E948D0D8F2D0E948D0D51
:1018D0008D2F0E948D0D812F0E948D0D8C2F0E94C7
:1018E0008D0D002321F0083021F08FEF03C085E932
:1018F00001C087E80E948D0D2B9AC0E0D1E00E94C4
:10190000940D182F882314F42197C9F7112391F40B
:101910000A3381F40E94940D86FF04C081E0809315
:10192000840602C0109284060E94940D0E94940DB9
:101930000E94940D812FDF91CF911F910F91FF9005
:101940000895CF92DF92EF92FF92CF93DF930E94A0
:101950007D0D0E94840DCAE08FEF0E948D0DC15055
:10196000D9F70E94890D80E040E050E0BA010E9462
:101970004D0CCEEFD0E009C080E040E050E0BA016D
:101980000E944D0C219709F457C08130A9F75EC021
:1019900088E04AEA51E060E070E00E944D0C219737
:1019A00029F481E080938D0680E049C0813081F781
:1019B0000E94940D0E94940D0E94940D0E94940D1B
:1019C0008A3A49F482E080938D06CC24DD247601A6
:1019D0006894F6F806C081E080938D06CC24DD245F
:1019E000760187E340E050E0BA010E944D0C89E2A5
:1019F000B701A6010E944D0CCEEFD0E00DC087E3E9
:101A000040E050E0BA010E944D0C89E2B701A60106
:101A10000E944D0C219791F0882389F780918D06C3
:101A2000823031F48AE340E050E0BA010E944D0C6C
:101A30000E948B0D81E003C080E001C080E0DF9157
:101A4000CF91FF90EF90DF90CF90089588E04AEA21
:101A500051E060E070E00E944D0CCEEFD0E0A6CFE8
:101A6000CF92DF92EF92FF920F931F93CF93DF936A
:101A7000EC010E94890D6E01EE24FF2481E1B70183
:101A8000A6010E944D0CCEEFD0E007C081E1B70166
:101A9000A6010E944D0C219721F18823B9F7C0E0DF
:101AA000D1E002C02197F9F00E94940D8E3FD1F74A
:101AB000C0E8D4E000E816E0FE011192E017F1075B
:101AC000E1F70E94940D8993C017D107D1F70E94C6
:101AD000940D0E94940D0E94940D0E948B0D81E044
:101AE00003C080E001C080E0DF91CF911F910F9192
:101AF000FF90EF90DF90CF90089584B1876084B914
:101B000085B1876085B9089583E58CBD1DBC1EBC79
:101B1000089528980895289A08958EBD00000DB460
:101B200007FEFDCF8EB508958FEF0E948D0D8EB507
:101B300008950CD0E6C0DED040F0D5D030F021F4CE
:101B40005F3F19F0C7C0511110C1CAC0EBD098F364
:101B50009923C9F35523B1F3951B550BBB27AA272E
:101B600062177307840738F09F5F5F4F220F331FA0
:101B7000441FAA1FA9F333D00E2E3AF0E0E830D06C
:101B800091505040E695001CCAF729D0FE2F27D06F
:101B9000660F771F881FBB1F261737074807AB073D
:101BA000B0E809F0BB0B802DBF01FF2793585F4FB2
:101BB0002AF09E3F510568F08DC0D7C05F3FECF31F
:101BC000983EDCF3869577956795B795F7959F5F77
:101BD000C9F7880F911D9695879597F90895E1E0CB
:101BE000660F771F881FBB1F621773078407BA072A
:101BF00020F0621B730B840BBA0BEE1F88F7E09585
:101C0000089598D088F09F5790F0B92F9927B75131
:101C1000A0F0D1F0660F771F881F991F1AF0BA95B0
:101C2000C9F712C0B13081F09FD0B1E008959CC0D7
:101C3000672F782F8827B85F39F0B93FCCF38695A6
:101C400077956795B395D9F73EF490958095709503
:101C500061957F4F8F4F9F4F0895E89409C097FB80
:101C60003EF490958095709561957F4F8F4F9F4F73
:101C70009923A9F0F92F96E9BB279395F6958795B7
:101C800077956795B795F111F8CFFAF4BB0F11F47A
:101C900060FF1BC06F5F7F4F8F4F9F4F16C0882321
:101CA00011F096E911C0772321F09EE8872F762F57
:101CB00005C0662371F096E8862F70E060E02AF098
:101CC0009A95660F771F881FDAF7880F9695879584
:101CD00097F9089597F99F6780E870E060E00895AC
:101CE0009FEF80EC089500240A9416161706180634
:101CF0000906089500240A94121613061406050610
:101D00000895092E0394000C11F4882352F0BB0FA0
:101D100040F4BF2B11F460FF04C06F5F7F4F8F4F03
:101D20009F4F089557FD9058440F551F59F05F3F3E
:101D300071F04795880F97FB991F61F09F3F79F0ED
:101D400087950895121613061406551FF2CF46956F
:101D5000F1DF08C0161617061806991FF1CF8695F1
:101D60007105610508940895E894BB2766277727D5
:101D7000CB0197F908950BD0C4CFB5DF28F0BADFB7
:101D800018F0952309F0A6CFABCF1124EECFCADF10
:101D9000A0F3959FD1F3950F50E0551F629FF0017E
:101DA000729FBB27F00DB11D639FAA27F00DB11DD7
:101DB000AA1F649F6627B00DA11D661F829F222760
:101DC000B00DA11D621F739FB00DA11D621F839FE7
:101DD000A00D611D221F749F3327A00D611D231FBD
:101DE000849F600D211D822F762F6A2F11249F570B
:101DF00050408AF0E1F088234AF0EE0FFF1FBB1F2E
:101E0000661F771F881F91505040A9F79E3F5105CC
:101E100070F060CFAACF5F3FECF3983EDCF386957D
:101E200077956795B795F795E7959F5FC1F7FE2B77
:101E3000880F911D9695879597F90895629FD00117
:101E4000739FF001829FE00DF11D649FE00DF11D75
:101E5000929FF00D839FF00D749FF00D659FF00D24
:101E60009927729FB00DE11DF91F639FB00DE11D11
:101E7000F91FBD01CF0111240895AA1BBB1B51E11D
:101E800007C0AA1FBB1FA617B70710F0A61BB70BEA
:101E9000881F991F5A95A9F780959095BC01CD018F
:101EA000089597FB092E07260AD077FD04D0E5DFB9
:101EB00006D000201AF4709561957F4F0895F6F7CB
:101EC000909581959F4F0895A1E21A2EAA1BBB1BE6
:101ED000FD010DC0AA1FBB1FEE1FFF1FA217B307F6
:101EE000E407F50720F0A21BB30BE40BF50B661F0C
:101EF000771F881F991F1A9469F7609570958095D0
:101F000090959B01AC01BD01CF01089597FB092E6F
:101F100005260ED057FD04D0D7DF0AD0001C38F4B8
:101F200050954095309521953F4F4F4F5F4F089505
:101F3000F6F790958095709561957F4F8F4F9F4FE5
:061F40000895F894FFCFA4
:101F46000A002400656E642E776176005069616E22
:101F56006F005472756D706574002300354E3559E7
:101F6600354E344E3559344E3659344E0000000045
:0C1F76003031434445464741425A2D009B
:00000001FF
